<!DOCTYPE HTML><html><head><title>Hancock - Wallet HUB API documentation</title><meta http-equiv="X-UA-Compatible" content="IE=edge"><meta http-equiv="Content-Type" content="text/html; charset=utf-8"><meta name="generator" content="https://github.com/raml2html/raml2html 6.7.0"><link rel="stylesheet" href="https://netdna.bootstrapcdn.com/bootstrap/3.3.7/css/bootstrap.min.css"><link rel="stylesheet" href="https://cdnjs.cloudflare.com/ajax/libs/highlight.js/9.12.0/styles/default.min.css"><script type="text/javascript" src="https://code.jquery.com/jquery-1.11.0.min.js"></script><script type="text/javascript" src="https://netdna.bootstrapcdn.com/bootstrap/3.3.7/js/bootstrap.min.js"></script><script type="text/javascript" src="https://cdnjs.cloudflare.com/ajax/libs/highlight.js/9.12.0/highlight.min.js"></script><script type="text/javascript">
      $(document).ready(function() {
        $('.page-header pre code, .top-resource-description pre code, .modal-body pre code').each(function(i, block) {
          hljs.highlightBlock(block);
        });

        $('[data-toggle]').click(function() {
          var selector = $(this).data('target') + ' pre code';
          $(selector).each(function(i, block) {
            hljs.highlightBlock(block);
          });
        });

        // open modal on hashes like #_action_get
        $(window).bind('hashchange', function(e) {
          var anchor_id = document.location.hash.substr(1); //strip #
          var element = $('#' + anchor_id);

          // do we have such element + is it a modal?  --> show it
          if (element.length && element.hasClass('modal')) {
            element.modal('show');
          }
        });

        // execute hashchange on first page load
        $(window).trigger('hashchange');

        // remove url fragment on modal hide
        $('.modal').on('hidden.bs.modal', function() {
          try {
            if (history && history.replaceState) {
                history.replaceState({}, '', '#');
            }
          } catch(e) {}
        });
      });
    </script><style>
      .hljs {
        background: transparent;
      }
      .parent {
        color: #999;
      }
      .list-group-item > .badge {
        float: none;
        margin-right: 6px;
      }
      .panel-title > .methods {
        float: right;
      }
      .badge {
        border-radius: 0;
        text-transform: uppercase;
        width: 70px;
        font-weight: normal;
        color: #f3f3f6;
        line-height: normal;
      }
      .badge_get {
        background-color: #63a8e2;
      }
      .badge_post {
        background-color: #6cbd7d;
      }
      .badge_put {
        background-color: #22bac4;
      }
      .badge_delete {
        background-color: #d26460;
      }
      .badge_patch {
        background-color: #ccc444;
      }
      .list-group, .panel-group {
        margin-bottom: 0;
      }
      .panel-group .panel+.panel-white {
        margin-top: 0;
      }
      .panel-group .panel-white {
        border-bottom: 1px solid #F5F5F5;
        border-radius: 0;
      }
      .panel-white:last-child {
        border-bottom-color: white;
        -webkit-box-shadow: none;
        box-shadow: none;
      }
      .panel-white .panel-heading {
        background: white;
      }
      .tab-pane ul {
        padding-left: 2em;
      }
      .tab-pane h1 {
        font-size: 1.3em;
      }
      .tab-pane h2 {
        font-size: 1.2em;
        padding-bottom: 4px;
        border-bottom: 1px solid #ddd;
      }
      .tab-pane h3 {
        font-size: 1.1em;
      }
      .tab-content {
        border-left: 1px solid #ddd;
        border-right: 1px solid #ddd;
        border-bottom: 1px solid #ddd;
        padding: 10px;
      }
      #sidebar {
        margin-top: 30px;
        padding-right: 5px;
        overflow: auto;
        height: 90%;
      }
      .top-resource-description {
        border-bottom: 1px solid #ddd;
        background: #fcfcfc;
        padding: 15px 15px 0 15px;
        margin: -15px -15px 10px -15px;
      }
      .resource-description {
        border-bottom: 1px solid #fcfcfc;
        background: #fcfcfc;
        padding: 15px 15px 0 15px;
        margin: -15px -15px 10px -15px;
      }
      .resource-description p:last-child {
        margin: 0;
      }
      .list-group .badge {
        float: left;
      }
      .method_description {
        margin-left: 85px;
      }
      .method_description p:last-child {
        margin: 0;
      }
      .list-group-item {
        cursor: pointer;
      }
      .list-group-item:hover {
        background-color: #f5f5f5;
      }
      pre code {
        overflow: auto;
        word-wrap: normal;
        white-space: pre;
      }
      .items {
        background: #f5f5f5;
        color: #333;
        border: 1px solid #ccc;
        border-radius: 4px;
        padding: 9.5px;
        margin: 0 0 10px;
        font-size: 13px;
        line-height: 1.42857143;
      }
      .examples {
        margin-left: 0.5em;
      }
      .resource-modal li > ul {
        margin-bottom: 1em;
      }
    </style></head><body data-spy="scroll" data-target="#sidebar"><div class="container"><div class="row"><div class="col-md-9" role="main"><div class="page-header"><h1>Hancock - Wallet HUB API documentation <small>version v1</small></h1><p>https://host/{version}/wallet-hub</p><ul><li><strong>version</strong>: <em>required (v1)</em></li></ul><h3 id="summary"><a href="#summary">Summary</a></h3><p><strong><em>Summary</em></strong></p></div><div class="panel panel-default"><div class="panel-heading"><h3 id="health" class="panel-title">Health</h3></div><div class="panel-body"><div class="top-resource-description"><p>Healthcheck.</p></div><div class="panel-group"><div class="panel panel-white resource-modal"><div class="panel-heading"><h4 class="panel-title"><a class="collapsed" data-toggle="collapse" href="#panel_health"><span class="parent"></span>/health</a> <span class="methods"><a href="#health_get"><span class="badge badge_get">get</span></a></span></h4></div><div id="panel_health" class="panel-collapse collapse"><div class="panel-body"><div class="list-group"><div onclick="window.location.href = '#health_get'" class="list-group-item"><span class="badge badge_get">get</span><div class="method_description"><h5 id="description">Description</h5><p>Method for checking health status.</p></div><div class="clearfix"></div></div></div></div></div><div class="modal fade" tabindex="0" id="health_get"><div class="modal-dialog modal-lg"><div class="modal-content"><div class="modal-header"><button type="button" class="close" data-dismiss="modal" aria-hidden="true">&times;</button><h4 class="modal-title" id="myModalLabel"><span class="badge badge_get">get</span> <span class="parent"></span>/health</h4></div><div class="modal-body"><div class="alert alert-info"><h5 id="description">Description</h5><p>Method for checking health status.</p></div><ul class="nav nav-tabs"><li class="active"><a href="#health_get_response" data-toggle="tab">Response</a></li></ul><div class="tab-content"><div class="tab-pane active" id="health_get_response"><h2>HTTP status code <a href="http://httpstatus.es/200" target="_blank">200</a></h2><p>Request successfully processed</p><h3>Body</h3><p><strong>Media type</strong>: application/json</p><p><strong>Type</strong>: object</p><p><strong>Example</strong>:</p><div class="examples"><pre><code>{
  "success": true
}
</code></pre></div></div></div></div></div></div></div></div></div></div></div><div class="panel panel-default"><div class="panel-heading"><h3 id="dlt_type_" class="panel-title">DLT</h3></div><div class="panel-body"><div class="top-resource-description"><p>API to discover signature providers and send signed transactions to DLT</p></div><div class="panel-group"><div class="panel panel-white resource-modal"><div class="panel-heading"><h4 class="panel-title"><a class="collapsed" data-toggle="collapse" href="#panel_dlt_type__sign_tx"><span class="parent">/{dlt_type}</span>/sign-tx</a> <span class="methods"><a href="#dlt_type__sign_tx_post"><span class="badge badge_post">post <span class="glyphicon glyphicon-lock" title="Authentication required"></span></span></a></span></h4></div><div id="panel_dlt_type__sign_tx" class="panel-collapse collapse"><div class="panel-body"><div class="resource-description"><p>Send a sign request to one of the providers.</p></div><div class="list-group"><div onclick="window.location.href = '#dlt_type__sign_tx_post'" class="list-group-item"><span class="badge badge_post">post <span class="glyphicon glyphicon-lock" title="Authentication required"></span></span><div class="method_description"><h5 id="description">Description</h5><p>Method for sign raw transactions through a sign provider.</p></div><div class="clearfix"></div></div></div></div></div><div class="modal fade" tabindex="0" id="dlt_type__sign_tx_post"><div class="modal-dialog modal-lg"><div class="modal-content"><div class="modal-header"><button type="button" class="close" data-dismiss="modal" aria-hidden="true">&times;</button><h4 class="modal-title" id="myModalLabel"><span class="badge badge_post">post <span class="glyphicon glyphicon-lock" title="Authentication required"></span></span> <span class="parent">/{dlt_type}</span>/sign-tx</h4></div><div class="modal-body"><div class="alert alert-info"><h5 id="description">Description</h5><p>Method for sign raw transactions through a sign provider.</p></div><div class="alert alert-warning"><span class="glyphicon glyphicon-lock" title="Authentication required"></span> Secured by <b>oauth_2_0</b><p>Hancock supports OAuth 2.0 for authenticating all API requests.</p></div><ul class="nav nav-tabs"><li class="active"><a href="#dlt_type__sign_tx_post_request" data-toggle="tab">Request</a></li><li><a href="#dlt_type__sign_tx_post_response" data-toggle="tab">Response</a></li><li><a href="#dlt_type__sign_tx_post_securedby" data-toggle="tab">Security</a></li></ul><div class="tab-content"><div class="tab-pane active" id="dlt_type__sign_tx_post_request"><h3>URI Parameters</h3><ul><li><strong>dlt_type</strong>: <em>required (string)</em><p>Dlt to work with</p></li></ul><h3>Body</h3><p><strong>Media type</strong>: application/json</p><p><strong>Type</strong>:</p><pre><code>{
  "type": "object",
  "$schema": "http://json-schema.org/draft-03/schema",
  "id": "http://jsonschema.net",
  "description": "Sign transaction schema",
  "properties": {
    "rawTx": {
      "type": "object",
      "description": "Raw transaction which will be signed",
      "properties": {
        "from": { "type": "string" },
        "nonce": { "type": "string" },
        "gasPrice": { "type": "string" },
        "gasLimit": { "type": "string" },
        "gas": { "type": "string" },
        "to": { "type": "string" },
        "value": { "type": "string" },
        "data": { "type": "string" },
        "chainId": { "type": "integer" }
      },
      "required": [ "from", "nonce", "gasPrice", "data" ]
    },
    "provider": {
      "type": "string",
      "description": "A provider who will sign the transaction"
    },
    "backUrl": {
      "type": "string",
      "description": "Endpoint to call when the tx has been sent to the DLT"
    }
  },
  "required": [ "rawTx", "provider" ]
}</code></pre><p><strong>Example</strong>:</p><div class="examples"><pre><code>{
  "rawTx": {
    "from": "0xF33De5370Cc4AF2cF155d0bfEc5aA6888Cfcd9F6",
    "nonce": "0x00",
    "gasPrice": "0x04a817c800",
    "gasLimit": "0x5208",
    "to": "0xd452cb5c4ba4c71ef7c14db0d930dc35c4c97ac7",
    "value": "0x0de0b6b3a7640000",
    "data": "",
    "chainId": 1
  },
  "provider": "fake-provider-local"
}</code></pre></div></div><div class="tab-pane" id="dlt_type__sign_tx_post_response"><h2>HTTP status code <a href="http://httpstatus.es/200" target="_blank">200</a></h2><p>Success sign response</p><h3>Body</h3><p><strong>Media type</strong>: application/json</p><p><strong>Type</strong>: IApiSignTxResponse</p><p><strong>Example</strong>:</p><div class="examples"><pre><code>{
  "success": true
}
</code></pre></div><h2>HTTP status code <a href="http://httpstatus.es/400" target="_blank">400</a></h2><p>Bad Request</p><h2>HTTP status code <a href="http://httpstatus.es/404" target="_blank">404</a></h2><p>Not Found</p><h2>HTTP status code <a href="http://httpstatus.es/504" target="_blank">504</a></h2><p>Gateway Time-out</p></div><div class="tab-pane" id="dlt_type__sign_tx_post_securedby"><h1>Secured by oauth_2_0</h1><h3>Headers</h3><ul><li><strong>Authorization</strong>: <em>required (string)</em><p>Used to send a valid OAuth 2 access token. Do not use with the "access_token" query string parameter.</p></li></ul><h2>HTTP status code <a href="http://httpstatus.es/401" target="_blank">401</a></h2><p>Bad or expired token. This can happen if the user or Hancock revoked or expired an access token. To fix, re-authenticate the user.</p><h2>HTTP status code <a href="http://httpstatus.es/403" target="_blank">403</a></h2><p>Bad OAuth request (wrong consumer key, bad nonce, expired timestamp...). Unfortunately, re-authenticating the user won&#39;t help here.</p></div></div></div></div></div></div></div><div class="panel panel-white resource-modal"><div class="panel-heading"><h4 class="panel-title"><a class="collapsed" data-toggle="collapse" href="#panel_dlt_type__send_tx"><span class="parent">/{dlt_type}</span>/send-tx</a> <span class="methods"><a href="#dlt_type__send_tx_post"><span class="badge badge_post">post</span></a></span></h4></div><div id="panel_dlt_type__send_tx" class="panel-collapse collapse"><div class="panel-body"><div class="resource-description"><p>Sends a transaction to the DLT.</p></div><div class="list-group"><div onclick="window.location.href = '#dlt_type__send_tx_post'" class="list-group-item"><span class="badge badge_post">post</span><div class="method_description"><h5 id="description">Description</h5><p>Method that sends transactions to the DLT.</p></div><div class="clearfix"></div></div></div></div></div><div class="modal fade" tabindex="0" id="dlt_type__send_tx_post"><div class="modal-dialog modal-lg"><div class="modal-content"><div class="modal-header"><button type="button" class="close" data-dismiss="modal" aria-hidden="true">&times;</button><h4 class="modal-title" id="myModalLabel"><span class="badge badge_post">post</span> <span class="parent">/{dlt_type}</span>/send-tx</h4></div><div class="modal-body"><div class="alert alert-info"><h5 id="description">Description</h5><p>Method that sends transactions to the DLT.</p></div><ul class="nav nav-tabs"><li class="active"><a href="#dlt_type__send_tx_post_request" data-toggle="tab">Request</a></li><li><a href="#dlt_type__send_tx_post_response" data-toggle="tab">Response</a></li></ul><div class="tab-content"><div class="tab-pane active" id="dlt_type__send_tx_post_request"><h3>URI Parameters</h3><ul><li><strong>dlt_type</strong>: <em>required (string)</em><p>Dlt to work with</p></li></ul><h3>Body</h3><p><strong>Media type</strong>: application/json</p><p><strong>Type</strong>:</p><pre><code>{
  "type": "object",
  "$schema": "http://json-schema.org/draft-03/schema",
  "id": "http://jsonschema.net",
  "description": "Send transaction schema",
  "properties": {
    "tx": {
      "type": "object",
      "description": "Transaction which will be sent to the DLT",
      "properties": {
        "from": { "type": "string" },
        "nonce": { "type": "string" },
        "gasPrice": { "type": "string" },
        "gasLimit": { "type": "string" },
        "gas": { "type": "string" },
        "to": { "type": "string" },
        "value": { "type": "string" },
        "data": { "type": "string" },
        "chainId": { "type": "integer" }
      },
      "required": [ "from", "nonce", "gasPrice", "to", "data" ]
    }
  },
  "required": [ "tx" ]
}</code></pre><p><strong>Example</strong>:</p><div class="examples"><pre><code>{
  "tx": {
    "from": "0xF33De5370Cc4AF2cF155d0bfEc5aA6888Cfcd9F6",
    "nonce": "0x00",
    "gasPrice": "0x04a817c800",
    "gasLimit": "0x5208",
    "to": "0xd452cb5c4ba4c71ef7c14db0d930dc35c4c97ac7",
    "value": "0x0de0b6b3a7640000",
    "data": "",
    "chainId": 1
  }
}</code></pre></div></div><div class="tab-pane" id="dlt_type__send_tx_post_response"><h2>HTTP status code <a href="http://httpstatus.es/200" target="_blank">200</a></h2><p>Success dlt write response</p><h3>Body</h3><p><strong>Media type</strong>: application/json</p><p><strong>Type</strong>: IApiSendTxResponse</p><p><strong>Example</strong>:</p><div class="examples"><pre><code>{
"success": true,
"txReceipt": {
    "transactionHash": "0x57d1ecea38db60b46f269c5f3331a6ee7665952d13bb0cb8e6e3e462269ef498",
    "transactionIndex": 0,
    "blockHash": "0x6f41956fa810684a2fef32b5d9b815668538fd122f57551ec5c84c535cff67f2",
    "blockNumber": 277,
    "gasUsed": 21000,
    "cumulativeGasUsed": 21000,
    "contractAddress": null,
    "logs": [],
    "status": true,
    "logsBloom": "0x00000000000000000000000000000000000000000000000000000000000000000000000000000000000000000000000000000000000000000000000000000000000000000000000000000000000000000000000000000000000000000000000000000000000000000000000000000000000000000000000000000000000000000000000000000000000000000000000000000000000000000000000000000000000000000000000000000000000000000000000000000000000000000000000000000000000000000000000000000000000000000000000000000000000000000000000000000000000000000000000000000000000000000000000000000000"
  }
} 
</code></pre></div><h2>HTTP status code <a href="http://httpstatus.es/400" target="_blank">400</a></h2><p>Bad Request</p><h2>HTTP status code <a href="http://httpstatus.es/404" target="_blank">404</a></h2><p>Not Found</p><h2>HTTP status code <a href="http://httpstatus.es/504" target="_blank">504</a></h2><p>Gateway Time-out</p></div></div></div></div></div></div></div><div class="panel panel-white resource-modal"><div class="panel-heading"><h4 class="panel-title"><a class="collapsed" data-toggle="collapse" href="#panel_dlt_type__send_signed_tx"><span class="parent">/{dlt_type}</span>/send-signed-tx</a> <span class="methods"><a href="#dlt_type__send_signed_tx_post"><span class="badge badge_post">post <span class="glyphicon glyphicon-lock" title="Authentication required"></span></span></a></span></h4></div><div id="panel_dlt_type__send_signed_tx" class="panel-collapse collapse"><div class="panel-body"><div class="resource-description"><p>Sends a signed transaction to the DLT.</p></div><div class="list-group"><div onclick="window.location.href = '#dlt_type__send_signed_tx_post'" class="list-group-item"><span class="badge badge_post">post <span class="glyphicon glyphicon-lock" title="Authentication required"></span></span><div class="method_description"><h5 id="description">Description</h5><p>Method that sends signed transactions to the DLT.</p></div><div class="clearfix"></div></div></div></div></div><div class="modal fade" tabindex="0" id="dlt_type__send_signed_tx_post"><div class="modal-dialog modal-lg"><div class="modal-content"><div class="modal-header"><button type="button" class="close" data-dismiss="modal" aria-hidden="true">&times;</button><h4 class="modal-title" id="myModalLabel"><span class="badge badge_post">post <span class="glyphicon glyphicon-lock" title="Authentication required"></span></span> <span class="parent">/{dlt_type}</span>/send-signed-tx</h4></div><div class="modal-body"><div class="alert alert-info"><h5 id="description">Description</h5><p>Method that sends signed transactions to the DLT.</p></div><div class="alert alert-warning"><span class="glyphicon glyphicon-lock" title="Authentication required"></span> Secured by <b>oauth_2_0</b><p>Hancock supports OAuth 2.0 for authenticating all API requests.</p></div><ul class="nav nav-tabs"><li class="active"><a href="#dlt_type__send_signed_tx_post_request" data-toggle="tab">Request</a></li><li><a href="#dlt_type__send_signed_tx_post_response" data-toggle="tab">Response</a></li><li><a href="#dlt_type__send_signed_tx_post_securedby" data-toggle="tab">Security</a></li></ul><div class="tab-content"><div class="tab-pane active" id="dlt_type__send_signed_tx_post_request"><h3>URI Parameters</h3><ul><li><strong>dlt_type</strong>: <em>required (string)</em><p>Dlt to work with</p></li></ul><h3>Body</h3><p><strong>Media type</strong>: application/json</p><p><strong>Type</strong>:</p><pre><code>{
  "type": "object",
  "$schema": "http://json-schema.org/draft-03/schema",
  "id": "http://jsonschema.net",
  "description": "Send signed transaction schema",
  "properties": {
    "tx": {
      "type": "string",
      "description": "Signed transaction which will be sent to the DLT"
    }
  },
  "required": [ "tx" ]
}</code></pre><p><strong>Example</strong>:</p><div class="examples"><pre><code>{
  "tx": "0xf86c808504a817c80082520894d452cb5c4ba4c71ef7c14db0d930dc35c4c97ac7880de0b6b3a76400008026a02f15224e0d6996e7ab7e31d848e1f65eee0eafb941dbfe3d3d35d1951452d316a057a7ac401d5ab83be3dc97771ad9093afcc2f6d08255cbcff308b614cd1bd1c5",
}</code></pre></div></div><div class="tab-pane" id="dlt_type__send_signed_tx_post_response"><h2>HTTP status code <a href="http://httpstatus.es/200" target="_blank">200</a></h2><p>Success dlt write response</p><h3>Body</h3><p><strong>Media type</strong>: application/json</p><p><strong>Type</strong>: IApiSendSignedTxResponse</p><p><strong>Example</strong>:</p><div class="examples"><pre><code>{
"success": true,
"transactionHash": "0x57d1ecea38db60b46f269c5f3331a6ee7665952d13bb0cb8e6e3e462269ef498"
}
</code></pre></div><h2>HTTP status code <a href="http://httpstatus.es/400" target="_blank">400</a></h2><p>Bad Request</p><h2>HTTP status code <a href="http://httpstatus.es/404" target="_blank">404</a></h2><p>Not Found</p><h2>HTTP status code <a href="http://httpstatus.es/504" target="_blank">504</a></h2><p>Gateway Time-out</p></div><div class="tab-pane" id="dlt_type__send_signed_tx_post_securedby"><h1>Secured by oauth_2_0</h1><h3>Headers</h3><ul><li><strong>Authorization</strong>: <em>required (string)</em><p>Used to send a valid OAuth 2 access token. Do not use with the "access_token" query string parameter.</p></li></ul><h2>HTTP status code <a href="http://httpstatus.es/401" target="_blank">401</a></h2><p>Bad or expired token. This can happen if the user or Hancock revoked or expired an access token. To fix, re-authenticate the user.</p><h2>HTTP status code <a href="http://httpstatus.es/403" target="_blank">403</a></h2><p>Bad OAuth request (wrong consumer key, bad nonce, expired timestamp...). Unfortunately, re-authenticating the user won&#39;t help here.</p></div></div></div></div></div></div></div></div></div></div></div><div class="col-md-3"><div id="sidebar" class="hidden-print affix" role="complementary"><ul class="nav nav-pills nav-stacked"><li><a href="#health">Health</a></li><li><a href="#dlt_type_">DLT</a></li></ul></div></div></div></div></body></html>